:100000000C943E000C9450000C9450000C94500042
:100010000C9450000C9450000C9450000C94500020
:100020000C9450000C9450000C9450000C94500010
:100030000C9450000C9450000C9450000C94500000
:100040000C9450000C9450000C9450000C945000F0
:100050000C9450000C9450000C9450000C945000E0
:100060000C9450000C9450000C9450000C945000D0
:100070000C9450000C9450000C94500011241FBE9E
:10008000CFEFCDBFDFE3DEBF28E3A0E0B8E301C0E0
:100090001D92A030B207E1F70E946A000C94E600BE
:1000A0000C940000813049F028F0823049F0833010
:1000B00051F008958FE781B908958DEF85B90895BE
:1000C0008BEF85B908958FED81B908958FEF81B9D0
:1000D00085B9089527E030E088ED84BF2093610062
:1000E00080EA80B986E084B90E946600C12CD12CD8
:1000F0007601B701A60180ED91E80E94A4000E945C
:10010000520087EA91E60197F1F700C000000E94D3
:10011000660083ED90E30197F1F700C00000C7018E
:10012000B6016F5F7F4F8F4F9F4F0091D28110912B
:10013000D3812091D4813091D581A90198010E9469
:10014000C4006B017C01D5CF0F931F938A019B01E3
:100150003695279517950795369527951795079501
:10016000FC0180819181FC01E00FF11F808190E012
:1001700040954370440F02C0959587954A95E2F7E4
:1001800083701F910F910895A1E21A2EAA1BBB1B29
:10019000FD010DC0AA1FBB1FEE1FFF1FA217B30753
:1001A000E407F50720F0A21BB30BE40BF50B661F69
:1001B000771F881F991F1A9469F76095709580952D
:1001C00090959B01AC01BD01CF010895F894FFCF3C
:1001D000D681CF7400003C0AFCC5F54AC1014141FB
:1001E000FD8DDFB237BDDC0607F00DEEE9ED1DA792
:1001F000939F2E47464B30F0C1C3C7B6F84A118BC8
:10020000076DCDF7929E7C6BF6D6EF9258D34913CB
:1002100072BF6D6AEE1602B08E8897ED5EBF4188A0
:100220000111B5074BF97BFC4AF661B9DB1BA7FA54
:1002300021D6E8A2B7CD2291B4137C08E91FBA7C7D
:10024000B20BE0029BFE5D07E0495CEEF4D01BDAE6
:1002500039D81E45D3AD3BCEBE27AC920760A4F47F
:10026000B1ADB2EB8847EBB5FB574EEA60314BA717
:10027000C590AF7DF6C206B0C0A27AE94CBC6996C3
:100280003702D3F87CA6189FA478D7CE08FF420087
:100290007A04701324BAEF15B81D39B89F068AA4E2
:1002A000C47673B63041F7BA578E9C577E2E4F02F4
:1002B00017DC91B9EB027D391FED6041E87F3E11FB
:1002C000C22ABB31E796E04E24E03E7EB11A06F723
:1002D00080227383E4845FF80F03E90203F845F496
:1002E0003AA0ED40FFB3F57C0F530D0873D050AB2F
:1002F000E008009F8E9FCEAC83D8DEDCD4BE6D14A8
:100300000E0E4140EE5FD0774E0BB8D3EEB807D358
:10031000A486A63FEF0251F983FEE91E20FE1C08C9
:100320002B9471FBAF1F154039EFBC03F3ED493B34
:10033000443D20B285E24CB7E58314C3837A7E0046
:1003400053DF6C2AEB6473E5FE8A7BBBDDF3BEBE34
:1003500053042EE5CFABD46E726704CAFB05312B74
:10036000BEFA20AF582B7C38417DF80C7500220274
:10037000D04D0CFBEB87F01F0E088D94F3FE937F9E
:10038000F79F510B9FFBA01EE02BFA3CC093D010AF
:100390003EF835EEB0FF02F100A009C002B97A0CB8
:1003A000FAE0480D0C78B5DFCE4FE4D229E76EFBBA
:1003B00018D0FF756477E01E7403DEE6EFF120A528
:1003C0009CC10C723A0FD12CF478874F8E738EF447
:1003D0004DE3FA71C10DCBEC3A5C4F12BAEFBD2F71
:1003E00087D92E9C1C137FA47BF380074056D7E34C
:1003F000E9F8220BF0A0AEC8BF7C886BEA03EF03DC
:10040000F37417B9FB80FB6BA103ED17B90280F001
:10041000A22EF484F7F09FB0303FFA7FBB9E1DCD33
:100420003CFAE89C07C097E0FCAE013FB464740A54
:100430008FB1202EEF035220807A5C74E5DC0255E8
:100440000080F37DF22A2011F54482EF048A0BED3F
:10045000F801EB8FC414F204171CB827BE09D4FAB4
:10046000FAC452FECF06A7CEF9D80D0211200B1EFA
:10047000E57E45C338EB0404317D11D029AE450437
:100480000AF1FFAE3847B8C82E42BC422EE0CD1F5D
:10049000F81F8E028F8C0B1F0E20B9DE5CC4BE07C6
:1004A0006B120B038BD97BBEE9239ED3001FE41490
:1004B000B3783C7C451EA4F8FC8E2E8B3A7131C774
:1004C000CFE38B7AE2FC0FA7D133B3EF7F715D48A6
:1004D000E28E0820AE3EE08208BF894D074338B364
:1004E000AC78238F142B017FA0FEB947DE79DF4162
:1004F00078208908208FAF238E32D0407BEB4108D3
:10050000692E28434841C73D010FBE2BD05D0F2205
:100510003A07C452FBD21CF82E0CBFCBAF3F007C75
:100520007843B313C00E484FBA0827002B00504B36
:10053000AFBC39250EFC5F013A28AEF92897C0C23E
:100540009C704394E42F8378E3C4C9C70E851F02CF
:10055000EAEB2FBBFC2684437E7011EDF4EFB695D9
:1005600003BC102B8213D07DF08B9F3803FC349199
:1005700082F71F914F3CD27ACFFEB9E15CC4F7F00D
:100580008BFBB231EF6440EDC7C9EDFE3003773825
:10059000407EFD09FFE80E08B80242F81008D9E2D3
:1005A0003D702282F094FCC1E02C05F4BE04880169
:1005B00008E30803409FBBE082F1041DE8201C2FE4
:1005C0005D12007EF1FCCF84F0E90DF4D48F794701
:1005D0007EF2E13E1347F7C0808E753332EAE3BE08
:1005E000F422AEFF079EEBCC5C70029EBA471E035E
:1005F0009C9809FE200B941210F33051F15AB4ABC1
:10060000F03AF11EC8A290212E7C00BB00B97FC435
:10061000F714DCF3770E209080F7E81EFDFA0FE662
:100620002039F913920804640F0E5EDEEE80702507
:1006300032FD073126C0CC2ACF00C422AEEBE3CE78
:10064000B9C8FF1FF114B0041EC9B47CD0447C1893
:10065000DC0E01DFBC43947E9CEC113A7C0FE82059
:100660009E76B3388DDD02E52712FDEFDF45E39E70
:10067000F126CC3AF37C7DF7DC01178204FF3E01C2
:100680004DD1F9EBD73023EB5CF7A10DC441CACCB7
:1006900083F7C222B8C02ECCF11CB0D7144F5172D0
:1006A0003AE0BCD17F8437C211F7F7F8882E28735F
:1006B000C2BBF104B2104F05D44642FBA13B4384B8
:1006C000CE8412FEB507CFE8E89E3BC700C0174CAA
:1006D0003D1382B004FF3BFC5C38E11DC6EF8A7F0E
:1006E000E2C714441E35CBFDEACAC4ED24F03447FA
:1006F000002E80C5442F0EBF07DCF03A923041EF48
:1007000037E51E4FBC11D410322F82FC35179DC423
:10071000239F3C4890A9EB8279C1FFB91F37C9716B
:10072000EC3084B2B8BCAE3BC880438BC7EFD04E30
:1007300050FC8F7E4022DF81BAEEC01FBA104921E3
:10074000057C2AEC827BCEC4EA447F7CE043F080C7
:10075000AEF48C5FB1BBAC0427100CDCB104A2D1A9
:100760007FEF38ED245179D2CE07C24EB13F1FB989
:10077000CB8B11EB0F14BBAD1CC04CC1F70201FEBB
:10078000CF9321AE7F1F102D7483102B5CF1A3BF7C
:10079000DC408012F110414C014BC7CC0FA3AEFBE3
:1007A000FB1203E15C2FA10F3CC20210F7CFD12254
:1007B0004143E37EC501414CD406427D8C3FC2FEDD
:1007C000CEE30CD03F9E38FC052F07AF30805E7D16
:1007D0000889F02F13FF5787C0EB8EEBA73E3CC074
:1007E000471115DFF080A2703EF130173EFE93BC3A
:1007F00010E41C30251B30140C5EBB31BEDFE891C9
:100800000052F804D03DBF8EC782D228664A83A327
:100810000DF97982370052DDE082CBA00D714C4892
:10082000086F7E2EC3B801C582FB2884F31F0149DF
:10083000030CBF003C4822BE94448DC3A79F3B21BC
:100840000F72DF1CF0805C383CDC8B3CAFE0057E37
:1008500071D3AFC9E7BC32ED5FA8C73270F39C25F6
:10086000FF7C102FBCB1071C132F11AEFC05BBFB86
:100870001C3CCE5F3F7F1FCF9C43EEC7FC720B102A
:100880003DC83C09373961C73240831EF08BB6B092
:100890003FEDC8A7D3F0F3F82D170FFDC078C0CFF8
:1008A00030FEBFF1CF0BBF972BDFC371D059E7F2FA
:1008B000BBFC3B70FCA4E5F7C7B1EBC48829CFE0D3
:1008C000771C3B473E4171EC7AF7317ECBBFB7CB0B
:1008D000AFC8F7F211735F7F201CC40F14FD37FC03
:1008E0000EA3F079FFA7CBE48BAFFE9333DFF47256
:1008F000BFF73B1FA3E9E434E43EFFD273FE4B1382
:10090000FCF2C3DFA7CEEBC30F0DFB103A558FD21D
:1009100073AF20EC4DF7F934FF3CECE802F3B93B40
:10092000EC86BEC3D341FB38EEF101B0C890422D36
:1009300083B1073EF0EBBC82B5FF3B739C3A2B02C0
:100940009FF901C443E83EEF0FB8C4F7B9EB2C4F51
:10095000CF2E382F98887ED1C4BF00850C0D71E151
:100960004B7DF136F8CBBC4B820EBD4D4DFC7F8CE0
:1009700009EB4021F38084F77774FFBC1F2105E267
:10098000270C11C0AF4F973C3BCCBFF8EB03403B6B
:10099000820D37900D26DEFC712D27CEED05CC7B28
:1009A000C7234A4F2EDE3BEB8CB9A0BE4BC03BF8B1
:1009B000E7C6F0C6FF4D07FC1B143A001D00472F89
:1009C0009079209E07E4083BB5F210EDF371FF3FEC
:1009D0004927690ABFBE3D23B201C08EFBE0EDF09E
:1009E0003ED1343784C82F1E98CBEC307339D17385
:1009F000040BE004E1156E17EB9FB3E1ECB99B4CDF
:100A0000F0E64AC9002D104F9FE33A06F023F4EDBB
:100A10003EDE041C60040C6CB9E70020C1F17FC20B
:100A2000F84EE41C7210BEF0EFB041023247C2AE85
:100A3000B00FBC30FAF824BC3C0BC47EEF5FFEF96B
:100A4000E73FDCFC3045EF4ED3B70131E1FF42E038
:100A500034CA310A73E3AEBB476E1324DC48C7EFD8
:100A6000F9C10139E3FE113AFC949BAEB2F31C3894
:100A7000409F953E3E792D304220BABFEDB97AFEB7
:100A80005E918CF191070EB87FF93F7C5C8BFF2E55
:100A90004BEB04DEF1114D007CC8B11E1FE413497D
:100AA000FBBFE9E783B10FFC08E7DEB094B14CFB74
:100AB000CE3143B1C82BDEF9F380BF195E111BCED6
:100AC000E74E8E9DCF3D0FD7045C5F82BDEF22EBDA
:100AD000041FF8F78B1ECA4691FB808D209EBBFB3E
:100AE000B371CBAC8EAC7C10E3CF1237F14A2FF749
:100AF000BAEC8E7B03F1F1C33BF11470F4173EB9ED
:100B0000FE84CD24DCCB27AEB3EC9CDB2C1397E525
:100B1000C73FCE2BF2089FFAE0C4B4ECBE5FC31F00
:100B2000C73D7CED3D1EC77BF0452FC74F7C5EBBAC
:100B3000F3DEF3F1FB1F84FF37C70E3BF7FFC9134A
:100B40003D2E8EBCEF445FCB17F7A3043E7CCD3F18
:100B5000B3F51024FDCFAF7F2C3C5C0886ECB7F0DA
:100B6000EBBF5FCB1FF8209E67B917FFBC0C080EC8
:100B7000CDC0BE6CB8EE73C5DF190CC3231F277F31
:100B800030C2C42CFF2E890E8C41C9C488279FBE59
:100B9000D37640A774387D2C1D2BDE3BDFC50514B2
:100BA000405DCD1749EFF922EBFC800E93D537ACB1
:100BB0000BE2AFB3AC42C1FBAC41C47C1ADFE9F835
:100BC000E1B2FC7B5084EE37917782139F0570F37E
:100BD000823F1D3DB0B70D30FDFAC4A7AC3BD074C9
:100BE000ABCFA13DCE403EEC7C27C2BE31250D707F
:100BF000845C2CC2FEF64F414A121FFD2EF27EF19C
:100C00000EBD14DEBBF143B9CE2950FD1CF0ABD3B1
:100C1000D7C3AF4EEB2EFAFF04C8F387BB77FFBCF8
:100C20004E4533A0F141E8BD39E9121F20AC1FF356
:100C3000A17FEF84A404910927AC68441CF12F0E16
:100C4000FF27EBEC679EF303A212BAFDD0D8FC514C
:100C5000077C387F05FBA7382C43CE05DC110853F1
:100C6000BE131CA177F79D01E83E5BFC8CEEE7D339
:100C7000C020F1E403ACE0E86C533EACB9FCF208F0
:100C8000E0FC45FF8EFBC8439D2BBC7F502E4B8064
:100C9000204342AC4451EBEF1D10FF87D1FF2FF2F0
:100CA000D48B1D0EB7FBDFFFFB380397FF17FE73D6
:100CB000AB3CF9CEDE7FE438EFED01309393F77B68
:100CC000FBFFBC5F77E51EC9F3FC33ADCCE5E72F36
:100CD000AB8E6CF384EBE8CEBE31CBFB7AFF09C060
:100CE00021EEF3B39349ECBBC70D7CE124207BB329
:100CF0008E3AE7288BBA11F383B7E11DBF302FCFAF
:100D00003AC39FC8D094FD4EEA77CC377BC7DC1C32
:100D100074AECBC41ED3BFFA522B3EFFCEEEF8B357
:100D2000E573FDF4C1EB0C47D2ECC39CBF3EFDF272
:100D30009CFFEC7EF1FE977FEFC741671FC8787775
:100D4000EBBF38F1F2FDC44A2FC8CCE0F44A871D4E
:100D500051508324C8E5F407413C0FBEAEFAE901C7
:100D60007ECD02C947B12DC03B48EC0B9134B2DFB8
:100D70001DD2FF9041D22C834D3703EEA743BB52C7
:100D8000F110E13DDF270231C7825FE000EBF47133
:100D9000FDEFF9FD4E4AB9EC84C0427FB82039E836
:100DA000412A417C427325D22FCBD5F534CE49FF61
:100DB0009C79D0827CE24A7BE70EB8F782FBDF00A9
:100DC0002F820B7F83BA703783F85B8E494E41B018
:100DD000BE8023A78D09CE1503B30129C8DE2842A2
:100DE0002A402F1CB9CE48439FF4739F202FA30E97
:100DF000391D0413CD0439088EBEEF57E04C31770E
:100E0000C412494070EBED314873044CC00C6EE3E2
:100E1000AC413F1F393493EEA03504AFB239232CD7
:100E200003EF41F2E03CB3A10F45C3F24E977CFBC8
:100E3000049FC2A50F79ED03C4830E27CB5EF91C76
:100E40006123B7EE796B1C44079F91E38439BC9F03
:100E50001C411040A8ACAFEC7E47BCD63F128FE0DF
:100E60003A9C8F5708B8E81EB1CDCC481E8145FB8F
:100E70002BFBC48445C0AD702E0B3F31FCF028F035
:100E8000105C0C8ACEB1FACBF27944B1B7109EB0A7
:100E9000E4120B97943D07B3CDFDEE7FE7B239E73F
:100EA000027C408F37272EAA1050D1C3EEF08EFB64
:100EB000B1111EB1EB4A4304BC45A09433A3420DCB
:100EC0007FAEB936EFB7B1E5BE513234D40D7028DC
:100ED000FFB87C02B0B3B10317107EE70E15EEAF7A
:100EE000F11F00112DEC5B79ACEE80AF3A7B2FB88F
:100EF000D075981539F4B49E3910DBFF01ABF9AE0B
:100F0000C2E495B7C45B9A44A472C78EDB312A7FD2
:100F1000E13710E302C9EBFE703D7001C3EFB67D0F
:100F20004200A1823843F0F8F7C7FB2F088447F747
:100F3000707141382010FCC3F1F0A3ED49EF9C041F
:100F4000E1F7F0BF20C86B84EB144CCD1B41B7C751
:100F500003110E92176DCE7F0A4FF8E0AC3EE113FD
:100F6000C02031FB44C43EFB8E38F3F4300287AC22
:100F7000E3FEC80152333C66CC6507CAE06EC6503A
:100F80009FEF0012C43DEE394E6039EB3EFAEC782B
:100F90004F230D08DD0EB07ACE3F6B8FD310146552
:100FA0002B2E8BD7BEC8F7CF3D3EF0E5CCF05F854A
:100FB0002A7F07922D13BE11E1F04097C4F0BA8F3B
:100FC000EF00CE1F468222BC01DFE16F3FC0CFA8F9
:100FD000D21314540FBBC1EFE8E12393DE4FB901E4
:100FE000FC3BFCF7712EF545C42FFA1472E2003376
:100FF000FBE3AEF53FB2FD07A3147D22272BBEC451
:10100000C34A3B01F1327721F2FF0A0F1FBB39E7D8
:101010008579CE4679F7AC373C7230191C6E7FD299
:10102000C9E47C7043BE7FD01ED015AC3FC1021F07
:101030007387F9EEDC2AFDFC28282F7BE0F0047D85
:10104000F7F9D28EB0E79CD263CE1C736F30DC50C0
:1010500043BB8CD21071CFECBE0BEF8C2C7F8FBCBE
:1010600063AE9ECF0E7050B4DB4105C840D27AFF0C
:1010700053F0C0EAB0A721FCF38F438BCE28D08E6B
:1010800047FD9331006C3B4D5C730740E0DF0B394B
:101090004F2E4083227645B27AEDDCDECB1CE14355
:1010A000212FD3400F3E0343259472289C7B2C3E76
:1010B000810903DCEBAFA4413BC007BF32E3B200C0
:1010C0005745F3ABEA3CD703B8C894E5C139F20FF2
:1010D0003A5D1FBDF9D9013106EFB27ED116FDCCC4
:1010E0008F270E2EE742CF8B80EB4EEE9AF4733BA8
:1010F000C052BA05D34A239441E7CE70CBBFF04F1C
:10110000ED09ED1A50EF0E47FCDC78EB0403E58C9B
:101110002CED643F104487F38BB773203223BE114C
:1011200021FEE0E2FF1933F9B013F7438E31DDE120
:101130008E7BEEEFD0C91F393742B72E9C93020742
:10114000F0B4BDFCF34010EFFCEDE0900EFA1E2170
:10115000E17C70285D383FE7741310E72F012AE324
:101160008F3BB17D7C548D4D0835CAA5A7BFEC8E51
:10117000336C0048EB11F38F81AF6EDFC9CC8E7CEE
:10118000547C70135C34A2CE78EDFD3FB1F10C4C71
:101190002027138E2F04A113BC84ECF7BCE7C70EE5
:1011A0003047D0ACFA8178BFCE29CEC4459312DF48
:1011B000129EFAA7EEF7F90F4487D3C23BAE7E4CDE
:1011C0006C853DF3BEC0E7BC614ED3341344C0F21E
:1011D000DFB7BC35B3BF90E752BEE3B448EE1D079E
:1011E000F1F28ACE273CFB0344C05153CBFD4FBBE9
:1011F0009C3A10BFFAFCCC00C4EEFAC98C3BC787FE
:10120000F0E43E413B87A1039EB8F13FC9C117B14D
:10121000E021D09FFE492019D0271E2884FC07B763
:10122000CEB3E71EC6E0B9EDE1220F137F4EA0BE9C
:10123000B01721451F0580F3B7F1EBCDBB070012B6
:10124000C0B103288B117F800AE1CEB8E7BEFC58FD
:10125000AC4107C40F03BEB8F3FEE784D1312C398B
:101260004F0B91711CB94422473BC83C7A7CC54165
:101270001D0CDD238BFDC90EF903CD00AFACE402DC
:10128000CF711D4A8517AC7AC22D3FE73E9727776D
:101290001C57DE764CBB3127E774E59EF8E473B843
:1012A0008293C033F9732303B2C83CC5E46E76EC75
:1012B0008BBFE303D02E0F413C812CEDFFB1EC0E30
:1012C0004F978861248CCBEDFE380FD0E9440F385E
:1012D000FE2EFB43948F1B9C2473BB13E98579D0AE
:1012E000F17914644F9C1C2A44720520CFD0F4BBC2
:1012F000B21F3801CCAD484EF5DA07EDA6FB5E789B
:101300000FBE11EE2E7FAFCE30C27C091302103417
:101310009D0E7F00EFF30ABBCD1938EFD3790F0490
:10132000A510329BAC220F5F11B0579FA2009EDF29
:10133000CFD17CC3D120E7B25D023FEA1C507407D5
:10134000BE3D344A9D20CE1CED33D1D01478049D8F
:101350001DFB0EC048FC3BE73C522402CA4C7F9365
:101360000EDE32217F3842F90FC42DF80F51B283BF
:10137000BA41FC427803B04A1DFC08FB2C2B0D1E21
:10138000AF135C44A45C445D2EF84703D00782BFD2
:101390003BBE1317A4C5C284E17320874DDCE3ABC9
:1013A000FC0383CD0BC3AF15C13BF3456608273063
:1013B00084EC6E4E8FA7D8ED8AAED39C72209EFA35
:1013C000C50FC5FC49CAFFDC4AEF05CBE7B1712B5D
:1013D000CEF8C45C30C48FFD48BCB9C05165E88DFF
:1013E0000FC045D3147CEC40A1F5FA0ECB9B302303
:1013F000EC40EF0B8447C00DDDE122DB3FB7CEA40C
:101400004E9FE2F84DCE0B3FEE00CA1789917BED5F
:10141000CEE321B944E7FD479F4847CE5EFA4D3DF4
:10142000CFA3F8F1B730D6FCE3E3BD043AAFF12B1C
:1014300005C4090538DECFB42D4EB0E44EC9CBEE5D
:10144000390D3872BB727B518B9FEF09BBE1E8739A
:10145000E0CD730FAE381E08F0E69FB202BD044E19
:10146000BEF02793CF24840F54BDF4613EB05702E1
:1014700073C2EEC5D09E3B20E82F738E4497ECB824
:10148000409F300C820F3DCF7CE5113DE103D1231D
:10149000AECE5CFFA0F90ED8C8CD79C3D4FBFB2338
:1014A000F84722E73705F07E5EBEE3AE92FECEC07F
:1014B000C04E4F511149FF8C02E7FEF0FC010F14A2
:1014C000FFDCF1DE12D4EE2DD3A0042CBB48CC8F70
:1014D0003B14702DE71BB3046F90FCAEB9EDEC84A8
:1014E000D39C38B123ECDD8E7CC138E3749E9FC958
:1014F000FBABF1010FE31F305DE811FF1087D22F26
:10150000C803BA7FC3BEC0C2A11FE3A104AB82C59A
:101510002FDCD3C3047BF1100BE3AEF8EC83EFE0D8
:101520000C0104F17BC3B24FE27FA9C26413C05225
:10153000C522B8031D0C3FABBA13E79C31EE37A8A8
:10154000710088E75244CCDC73EBBFBDCE1E13257F
:101550000805078063FB914747B7FFE3AC8BE3AD1A
:101560000B21F3F20395B0EBBDF3C482B2EF02BFDF
:1015700010537B2B5404272DF0E8B44F0FA2096CB5
:101580000044BD0F3CC202F8EBBED410F17807C78F
:10159000F1D22C80FC420FC054A2D03A03E3F7C82A
:1015A0003C9CE8E0F4F81ACC0F20A7397D81336F1A
:1015B000CE88FF2D32D2F2BAFC4DC78FA1C9C06FC1
:1015C000F0A0D17FE0F208FF3D73A12C4BC0073F94
:1015D0004C12399012BD370BBBBBDEF3E3F3C7E30C
:1015E0008FFBE030C035423F37B2FDC2BED02E1C6B
:1015F000F8731203F4FCE7FAEC08E94EC804FF158F
:1016000000F10DCB426E905ABBE73970DFC40390F6
:1016100020E73C802EE17D00F3AE32E413C5C0A488
:10162000C38E0ED900CC741EED0CFC044F04F27B6B
:1016300015CC3388BCC4FFAE7AF78C0A2F914AC40C
:101640009EFF084BAF971AB19E7ED8F48DF0E1FE55
:10165000DDE3923D07F8FAE3EE41EC4C49C303A801
:10166000DD3CF2E33B1857087003BC40200E1DC060
:101670008ABFFD1F13FBABF3104027277E8AF5BA04
:101680007302304813DFA0E78DFCC274EA11F64EF6
:10169000BA125FEF1C3B839B4D37824FFC3E8EC3DB
:1016A000CDFA40519810323AF3B4E4E40F133FE816
:1016B000A0C40D43D2FB7D73DFCFE138B03F55F0BE
:1016C0003C2AB1E7BCEDFC020AD03438CE3FCDDF76
:1016D0007CB02B21F30F22004122FBCFDCB8EF7E40
:1016E000F041C06043BFBFF7EFF3E51CB772D2EE25
:1016F000F0DF10520743C5579311C3DFD11BAEFC77
:10170000F15E102FF48D74BFC4F41D287EF7C5FD63
:10171000FF50EF1FAF539CC4EDDEA143AC708AFEB7
:101720003057B5C53F0E3AEFCFF9F51E20B704C3C9
:1017300008A7A3FFAC71FC8F60854B571F3EF0C11B
:101740009C70EFBCF02DEE0FD0FFB0E353FFABBFAA
:101750003C510010402FA3A02E2F48BF3DCB983006
:10176000F91FF833B77497FDF3A17E0A004AB0FD64
:101770000037CA83FBBF0833E3AF3FC0333DC244E9
:1017800065CF0FCB9B8DD5D2AFFDA7F2053EB23F03
:101790009432B3C13472BF407F1F9FC4C82F3F87AC
:1017A0005EB8F7DF4AFA127AE7927CF3BABCDF41FF
:1017B0007287FDCF00CC3803A053C48E7B21EE4747
:1017C000E15DDD20102EC6F80D7D1EC800A0DCD026
:1017D0001F707F22D414120DCFBC8FD70CF101FBE8
:1017E00095FFAE0BFF065148FE4DEFCE7E812822BD
:1017F0000D241EEF9E3CF7B5CCC3D64D3FD47FC21F
:10180000EF3A2EDD71C0F038DDE7F1C3B73923D3ED
:10181000FB0F22B8E0B4840D9D4A901E808F9E3C41
:10182000C3CC0F148E3FC4A79BCC9FA0F70437E313
:10183000DC2BEBAC3CC3C5ECC8FBF282DC37405F71
:10184000F8888CFD0780DCD296B2445FB0EBBE0A0C
:10185000FF0FBC7F5FC434CEBF505470EBBEBC5092
:1018600053122CB2C7F7FE07DC4E45241EFEE85C7F
:1018700000B71C3FAF00103BB43F41F43AFC12915B
:101880002BBDF1E2DC1002FDE5FD410FE92213E77B
:101890008471E39ED6E351211F88F7E13C453BDF8D
:1018A000FAEBB4BBCC114A040C7DC14AF9EF7F348A
:1018B000A3BC1E4482D5EF9CF4E48D07C75C7E9BDD
:1018C000BF3DC4AF70EFFD011B929EFC32A9E04EFC
:1018D000D041D338BB84C54FAE4ACCE672F34874CE
:1018E000870F75DA6A46CBB272D0D4D3E5C473B42D
:1018F0007EB9200F4BE7C770C1DCF94C5440FF1C88
:10190000F2EF14480F714BB7385084D2C8FB10EC7B
:101910004FEEB8F41E0E490DFFBE433A4BFFB11017
:10192000F016E7F07A0C9EF810840045420BFF9108
:101930000B4040FC4011450F023FEBAFF0FFD103DD
:101940003C5235340142422B4FCF82371FF4102EC8
:1019500011F9239E9F4D010CEB8F97EB8CF9E72239
:10196000174FEE4402FC1A5F1EFF945FE7448E039C
:101970008F9D0C47DE47BC9AB10D1F7AFA17FAE427
:10198000AE793C40C53F9CE40E9F32BF0EB3E8BC2D
:101990004483BDDCE205003E3E5050FC32E73E9001
:1019A0000F421D1FDF51242E47E801F423BAD05007
:1019B0000E4427F0119FBC041F2750FFAE43F42EA6
:1019C000FF038CD7F46DF840BE29E0B903E32BE3A5
:1019D00044A487D02FE484CEE1D043C3C89E480DF1
:1019E000227DE70DF9E71C03B48BBB1FA10D00227C
:1019F000F8FFEE80A9CD37CED7D5D2D245D3AECB26
:101A00007DF93B87CED5E4420081F441E75E53FB8C
:101A10004E3A00911FD76E0AEDFEFD03A4447AFEF4
:101A2000C110283FF381440D3C7121044FEEDEB01C
:101A30007B8EFB0CA0FB41044BF38D7F905E0F214E
:101A4000D3D0A28BC8C0CFF0834C4D148EF8FCAE1F
:101A50001377A4F0E7D2FB013D00203E165D0E2B6C
:101A6000E5083F0383774D8DD4207E80B3892CCC4D
:101A700003A53AC4FE9CAFF327A7E3E532C3AE103B
:101A8000F39FE7B3852F9ECBEDD0A9EFBDFBA35EFF
:101A90007903F8E0861DE252E740A2D03C4F1130B6
:101AA000181F3A3FBF38837D10FA07B07F8242B8D3
:101AB0000D0A39C75F48FFBD99C790631631097495
:101AC000757F68E9F3EFA6F91F7E7BFF4899F50063
:101AD000D305740088E907247750ABBD1FEFE41FDE
:101AE0009EFBEFEC12FC7445FF9DBE79E97E095721
:101AF000FDDCDFCE7F2DC7DF922CC07FB0830C389A
:101B0000A7FA7F9E80E5BD40054F1FCE3941CFF734
:101B1000F9E931C3EF1873ECC5F10CBB07DF43EDF6
:101B20003C7D2B8E91042D73F781387148FAEBCCF4
:101B30007800EA0DE8B0087BBECF112F1F47D21CFA
:101B4000F149EC741D0F8B1211EBBE04EF17DF4D42
:101B5000C4300FBE38978204ED40F444361AF4D6F0
:101B60008BEF0D4B0E8143F38E05861871C9B97F3B
:101B7000B09109E38B181F3B1D3DBF682212B1BC19
:101B800032F0C9B1F7FF7E7F6EB3DF9CBC472535CD
:101B9000F1E67D8FBB9B1E790CFBC1B8B7EC017DD4
:101BA000FFC6FC776EF003783DF722F5E37DEB701E
:101BB000181C0CF33CBFF7BFA07F0FF253A48F504B
:101BC0006B1CF16F8227C009D7E043A05CB0CAFD4F
:101BD00073D7C4E8FEDF710FE5CE504A0CAFFECCE0
:101BE000C3C2F0FF5DE9EF3A52C1FC9FBFEE7E79C0
:101BF000EFC48303E8D16BA0F9CD90E9FB7ECA7EE8
:101C00003BA749C7D3E7DFD21EFE66C66F53BAD3E0
:101C1000D0D480704F7DD06E51D4E91CF7852167F8
:101C2000DC80B81DB0DA27B8D7DBA137DB3E7A11EC
:101C30004DCA19EE134285E5C080D1EF9C4D1819AD
:101C4000FDF3C40FA89F649BB24AE1D2BFE7931291
:101C5000D9C4A3E907303C044853D4B24B8433E7DA
:101C6000F9FB12C2E1048EFD376F87F4AF1CC92265
:101C700033C70F3CE287FC0BF53FA0DF8F134C0509
:101C8000D30F003F370B4707883033DD0F23822403
:101C9000143A23E3C0604E00F3DFF7E91E304767D4
:101CA0001FB89FCD1C508BBBC8AC412C7FC0205FA0
:101CB0009DF7A04C62A43D14FD35DC9E3040FE47EC
:101CC00087E7F24743F9FF9FB5E1A6C011B734BCDF
:101CD0006E5234BF45C07BD34842282F4207F1DD06
:101CE00043FF7CFBE690CBBF3047F9F4474020210F
:101CF00020E3E07F4F0F87DCFEE7FF25FDE73D7E19
:101D0000FF0F39F3CDFFAF747E07908D30E01FB425
:101D100065C0604E03F7EFF7CA0D3441EC9E4FD11A
:101D2000420ECBF12D3B1D04D0533B2F8E15BB5CD7
:101D3000F47DCF703ACCF22CA27200D245FC3E0F5B
:101D4000B9BA38A7AF703454F4B136336B0F312FB2
:101D5000D7BF17FC43C3E5281703EACB7ECB9BEF25
:101D60006F73821FFC8B34E1BDBBEFF23F4DC0604F
:101D700040700EDE30E85500D260391564F1BFAE18
:101D800085748F41E92C1483A2064BAA66340106A0
:101D9000DA550AFC5430C79B7EBD167747413A425C
:101DA0008217C0F57628429BD43C114324B5238585
:101DB00003E9C716089C52183DBAEB86B00E0237ED
:101DC0004B508EB3F71C5CA07A94827A1F573AE787
:101DD00004086934CEAF9078A897E0C45008D13E8B
:101DE00091590D79C10E790DB9C41F5D0A0413E52F
:101DF00000A7DC6482A248A692D0977DDBD74D1B5A
:101E00002D904BD080F41D4A492CAA07DD79C83AA1
:101E10007A43A6B8E79DF9FE79E7E123E0527E22F6
:101E2000403B7AC0A50410429407B47080DE79E28A
:101E30009F70825DA4006C7947024C43B04427F642
:101E4000921BAD4810150A03FEA85281C348428177
:101E5000E3C404FA5903E443F955267D26F7DA0E64
:101E6000D993E93A0B445F6A06EBE17112B94D036D
:101E7000E8E1023503F408D0B4FF9E0C24CF864C71
:101E80004013D5141225C00A10020829E3807425D6
:101E9000F16488482012407B877DF5E7923FA38F4D
:101EA000DD4043E410D4E24B9E1D074A5C074E48D8
:101EB0005110A48EA73301BFD9FF5BF18CCCB71DA5
:101EC000FB920E0F76C1C4C910B23B2F07F0DD1391
:101ED0002437F0D2EEC13CA8A1F80894513FD1625A
:101EE00094668B18D8BB12E0439CA889E5CCE82205
:101EF000570EEC03C3FCB2E73553B8FF0C9F7CA22E
:0A1F00000E100000000000000000B9
:02000004008278
:090000000000010000C40700002B
:00000001FF
